{
  "_format": "hh-sol-artifact-1",
  "contractName": "Czy",
  "sourceName": "contracts/Czy.sol",
  "abi": [
    {
      "inputs": [],
      "stateMutability": "payable",
      "type": "constructor"
    },
    {
      "anonymous": false,
      "inputs": [
        {
          "indexed": true,
          "internalType": "address",
          "name": "owner",
          "type": "address"
        },
        {
          "indexed": true,
          "internalType": "address",
          "name": "approved",
          "type": "address"
        },
        {
          "indexed": true,
          "internalType": "uint256",
          "name": "tokenId",
          "type": "uint256"
        }
      ],
      "name": "Approval",
      "type": "event"
    },
    {
      "anonymous": false,
      "inputs": [
        {
          "indexed": true,
          "internalType": "address",
          "name": "owner",
          "type": "address"
        },
        {
          "indexed": true,
          "internalType": "address",
          "name": "operator",
          "type": "address"
        },
        {
          "indexed": false,
          "internalType": "bool",
          "name": "approved",
          "type": "bool"
        }
      ],
      "name": "ApprovalForAll",
      "type": "event"
    },
    {
      "anonymous": false,
      "inputs": [
        {
          "indexed": true,
          "internalType": "address",
          "name": "from",
          "type": "address"
        },
        {
          "indexed": true,
          "internalType": "address",
          "name": "to",
          "type": "address"
        },
        {
          "indexed": true,
          "internalType": "uint256",
          "name": "tokenId",
          "type": "uint256"
        }
      ],
      "name": "Transfer",
      "type": "event"
    },
    {
      "inputs": [
        {
          "internalType": "address",
          "name": "to",
          "type": "address"
        },
        {
          "internalType": "uint256",
          "name": "tokenId",
          "type": "uint256"
        }
      ],
      "name": "approve",
      "outputs": [],
      "stateMutability": "nonpayable",
      "type": "function"
    },
    {
      "inputs": [
        {
          "internalType": "address",
          "name": "owner",
          "type": "address"
        }
      ],
      "name": "balanceOf",
      "outputs": [
        {
          "internalType": "uint256",
          "name": "",
          "type": "uint256"
        }
      ],
      "stateMutability": "view",
      "type": "function"
    },
    {
      "inputs": [
        {
          "internalType": "uint256",
          "name": "tokenId",
          "type": "uint256"
        }
      ],
      "name": "getApproved",
      "outputs": [
        {
          "internalType": "address",
          "name": "",
          "type": "address"
        }
      ],
      "stateMutability": "view",
      "type": "function"
    },
    {
      "inputs": [],
      "name": "getNFTList",
      "outputs": [
        {
          "components": [
            {
              "internalType": "uint256",
              "name": "movie_id",
              "type": "uint256"
            },
            {
              "internalType": "string",
              "name": "movie_title",
              "type": "string"
            },
            {
              "internalType": "string",
              "name": "movie_image_uri",
              "type": "string"
            },
            {
              "internalType": "address",
              "name": "addressId",
              "type": "address"
            }
          ],
          "internalType": "struct Czy.NFT[]",
          "name": "",
          "type": "tuple[]"
        }
      ],
      "stateMutability": "view",
      "type": "function"
    },
    {
      "inputs": [
        {
          "internalType": "address",
          "name": "owner",
          "type": "address"
        },
        {
          "internalType": "address",
          "name": "operator",
          "type": "address"
        }
      ],
      "name": "isApprovedForAll",
      "outputs": [
        {
          "internalType": "bool",
          "name": "",
          "type": "bool"
        }
      ],
      "stateMutability": "view",
      "type": "function"
    },
    {
      "inputs": [],
      "name": "maxSupply",
      "outputs": [
        {
          "internalType": "uint256",
          "name": "",
          "type": "uint256"
        }
      ],
      "stateMutability": "view",
      "type": "function"
    },
    {
      "inputs": [
        {
          "internalType": "uint256",
          "name": "id",
          "type": "uint256"
        },
        {
          "internalType": "string",
          "name": "title",
          "type": "string"
        },
        {
          "internalType": "string",
          "name": "uri",
          "type": "string"
        }
      ],
      "name": "mint",
      "outputs": [],
      "stateMutability": "payable",
      "type": "function"
    },
    {
      "inputs": [],
      "name": "mintPrice",
      "outputs": [
        {
          "internalType": "uint256",
          "name": "",
          "type": "uint256"
        }
      ],
      "stateMutability": "view",
      "type": "function"
    },
    {
      "inputs": [],
      "name": "name",
      "outputs": [
        {
          "internalType": "string",
          "name": "",
          "type": "string"
        }
      ],
      "stateMutability": "view",
      "type": "function"
    },
    {
      "inputs": [
        {
          "internalType": "uint256",
          "name": "",
          "type": "uint256"
        }
      ],
      "name": "nfts",
      "outputs": [
        {
          "internalType": "uint256",
          "name": "movie_id",
          "type": "uint256"
        },
        {
          "internalType": "string",
          "name": "movie_title",
          "type": "string"
        },
        {
          "internalType": "string",
          "name": "movie_image_uri",
          "type": "string"
        },
        {
          "internalType": "address",
          "name": "addressId",
          "type": "address"
        }
      ],
      "stateMutability": "view",
      "type": "function"
    },
    {
      "inputs": [
        {
          "internalType": "uint256",
          "name": "tokenId",
          "type": "uint256"
        }
      ],
      "name": "ownerOf",
      "outputs": [
        {
          "internalType": "address",
          "name": "",
          "type": "address"
        }
      ],
      "stateMutability": "view",
      "type": "function"
    },
    {
      "inputs": [
        {
          "internalType": "address",
          "name": "from",
          "type": "address"
        },
        {
          "internalType": "address",
          "name": "to",
          "type": "address"
        },
        {
          "internalType": "uint256",
          "name": "tokenId",
          "type": "uint256"
        }
      ],
      "name": "safeTransferFrom",
      "outputs": [],
      "stateMutability": "nonpayable",
      "type": "function"
    },
    {
      "inputs": [
        {
          "internalType": "address",
          "name": "from",
          "type": "address"
        },
        {
          "internalType": "address",
          "name": "to",
          "type": "address"
        },
        {
          "internalType": "uint256",
          "name": "tokenId",
          "type": "uint256"
        },
        {
          "internalType": "bytes",
          "name": "data",
          "type": "bytes"
        }
      ],
      "name": "safeTransferFrom",
      "outputs": [],
      "stateMutability": "nonpayable",
      "type": "function"
    },
    {
      "inputs": [
        {
          "internalType": "address",
          "name": "operator",
          "type": "address"
        },
        {
          "internalType": "bool",
          "name": "approved",
          "type": "bool"
        }
      ],
      "name": "setApprovalForAll",
      "outputs": [],
      "stateMutability": "nonpayable",
      "type": "function"
    },
    {
      "inputs": [
        {
          "internalType": "bytes4",
          "name": "interfaceId",
          "type": "bytes4"
        }
      ],
      "name": "supportsInterface",
      "outputs": [
        {
          "internalType": "bool",
          "name": "",
          "type": "bool"
        }
      ],
      "stateMutability": "view",
      "type": "function"
    },
    {
      "inputs": [],
      "name": "symbol",
      "outputs": [
        {
          "internalType": "string",
          "name": "",
          "type": "string"
        }
      ],
      "stateMutability": "view",
      "type": "function"
    },
    {
      "inputs": [
        {
          "internalType": "uint256",
          "name": "tokenId",
          "type": "uint256"
        }
      ],
      "name": "tokenURI",
      "outputs": [
        {
          "internalType": "string",
          "name": "",
          "type": "string"
        }
      ],
      "stateMutability": "view",
      "type": "function"
    },
    {
      "inputs": [],
      "name": "totalSupply",
      "outputs": [
        {
          "internalType": "uint256",
          "name": "",
          "type": "uint256"
        }
      ],
      "stateMutability": "view",
      "type": "function"
    },
    {
      "inputs": [
        {
          "internalType": "address",
          "name": "from",
          "type": "address"
        },
        {
          "internalType": "address",
          "name": "to",
          "type": "address"
        },
        {
          "internalType": "uint256",
          "name": "tokenId",
          "type": "uint256"
        }
      ],
      "name": "transferFrom",
      "outputs": [],
      "stateMutability": "nonpayable",
      "type": "function"
    }
  ],
  "bytecode": "0x608060405260006006556040518060400160405280600381526020017f4e465400000000000000000000000000000000000000000000000000000000008152506040518060400160405280600781526020017f4d494e544e46540000000000000000000000000000000000000000000000000081525081600090805190602001906200008d929190620000b7565b508060019080519060200190620000a6929190620000b7565b5050506064600881905550620001cc565b828054620000c59062000167565b90600052602060002090601f016020900481019282620000e9576000855562000135565b82601f106200010457805160ff191683800117855562000135565b8280016001018555821562000135579182015b828111156200013457825182559160200191906001019062000117565b5b50905062000144919062000148565b5090565b5b808211156200016357600081600090555060010162000149565b5090565b600060028204905060018216806200018057607f821691505b602082108114156200019757620001966200019d565b5b50919050565b7f4e487b7100000000000000000000000000000000000000000000000000000000600052602260045260246000fd5b61303980620001dc6000396000f3fe6080604052600436106101145760003560e01c8063445a2112116100a0578063a22cb46511610064578063a22cb465146103bb578063b88d4fde146103e4578063c87b56dd1461040d578063d5abeb011461044a578063e985e9c51461047557610114565b8063445a2112146102c05780636352211e146102eb5780636817c76c1461032857806370a082311461035357806395d89b411461039057610114565b806318160ddd116100e757806318160ddd146101e757806323b872dd14610212578063265aa6211461023b5780632825df7b1461027b57806342842e0e1461029757610114565b806301ffc9a71461011957806306fdde0314610156578063081812fc14610181578063095ea7b3146101be575b600080fd5b34801561012557600080fd5b50610140600480360381019061013b9190612086565b6104b2565b60405161014d919061260e565b60405180910390f35b34801561016257600080fd5b5061016b610594565b6040516101789190612629565b60405180910390f35b34801561018d57600080fd5b506101a860048036038101906101a391906120d8565b610626565b6040516101b59190612585565b60405180910390f35b3480156101ca57600080fd5b506101e560048036038101906101e0919061204a565b61066c565b005b3480156101f357600080fd5b506101fc610784565b60405161020991906127eb565b60405180910390f35b34801561021e57600080fd5b5061023960048036038101906102349190611f44565b61078a565b005b34801561024757600080fd5b50610262600480360381019061025d91906120d8565b6107ea565b6040516102729493929190612806565b60405180910390f35b61029560048036038101906102909190612101565b61095a565b005b3480156102a357600080fd5b506102be60048036038101906102b99190611f44565b610b02565b005b3480156102cc57600080fd5b506102d5610b22565b6040516102e291906125ec565b60405180910390f35b3480156102f757600080fd5b50610312600480360381019061030d91906120d8565b610d05565b60405161031f9190612585565b60405180910390f35b34801561033457600080fd5b5061033d610db7565b60405161034a91906127eb565b60405180910390f35b34801561035f57600080fd5b5061037a60048036038101906103759190611edf565b610dbd565b60405161038791906127eb565b60405180910390f35b34801561039c57600080fd5b506103a5610e75565b6040516103b29190612629565b60405180910390f35b3480156103c757600080fd5b506103e260048036038101906103dd919061200e565b610f07565b005b3480156103f057600080fd5b5061040b60048036038101906104069190611f93565b610f1d565b005b34801561041957600080fd5b50610434600480360381019061042f91906120d8565b610f7f565b6040516104419190612629565b60405180910390f35b34801561045657600080fd5b5061045f610fe7565b60405161046c91906127eb565b60405180910390f35b34801561048157600080fd5b5061049c60048036038101906104979190611f08565b610fed565b6040516104a9919061260e565b60405180910390f35b60007f80ac58cd000000000000000000000000000000000000000000000000000000007bffffffffffffffffffffffffffffffffffffffffffffffffffffffff1916827bffffffffffffffffffffffffffffffffffffffffffffffffffffffff1916148061057d57507f5b5e139f000000000000000000000000000000000000000000000000000000007bffffffffffffffffffffffffffffffffffffffffffffffffffffffff1916827bffffffffffffffffffffffffffffffffffffffffffffffffffffffff1916145b8061058d575061058c82611081565b5b9050919050565b6060600080546105a390612ade565b80601f01602080910402602001604051908101604052809291908181526020018280546105cf90612ade565b801561061c5780601f106105f15761010080835404028352916020019161061c565b820191906000526020600020905b8154815290600101906020018083116105ff57829003601f168201915b5050505050905090565b6000610631826110eb565b6004600083815260200190815260200160002060009054906101000a900473ffffffffffffffffffffffffffffffffffffffff169050919050565b600061067782610d05565b90508073ffffffffffffffffffffffffffffffffffffffff168373ffffffffffffffffffffffffffffffffffffffff1614156106e8576040517f08c379a00000000000000000000000000000000000000000000000000000000081526004016106df906127ab565b60405180910390fd5b8073ffffffffffffffffffffffffffffffffffffffff16610707611136565b73ffffffffffffffffffffffffffffffffffffffff161480610736575061073581610730611136565b610fed565b5b610775576040517f08c379a000000000000000000000000000000000000000000000000000000000815260040161076c9061274b565b60405180910390fd5b61077f838361113e565b505050565b60075481565b61079b610795611136565b826111f7565b6107da576040517f08c379a00000000000000000000000000000000000000000000000000000000081526004016107d1906127cb565b60405180910390fd5b6107e583838361128c565b505050565b600981815481106107fa57600080fd5b906000526020600020906004020160009150905080600001549080600101805461082390612ade565b80601f016020809104026020016040519081016040528092919081815260200182805461084f90612ade565b801561089c5780601f106108715761010080835404028352916020019161089c565b820191906000526020600020905b81548152906001019060200180831161087f57829003601f168201915b5050505050908060020180546108b190612ade565b80601f01602080910402602001604051908101604052809291908181526020018280546108dd90612ade565b801561092a5780601f106108ff5761010080835404028352916020019161092a565b820191906000526020600020905b81548152906001019060200180831161090d57829003601f168201915b5050505050908060030160009054906101000a900473ffffffffffffffffffffffffffffffffffffffff16905084565b600654341461099e576040517f08c379a00000000000000000000000000000000000000000000000000000000081526004016109959061272b565b60405180910390fd5b600754600854116109e4576040517f08c379a00000000000000000000000000000000000000000000000000000000081526004016109db906126eb565b60405180910390fd5b600760008154809291906109f790612b41565b919050555060006007549050600960405180608001604052808681526020018581526020018481526020013373ffffffffffffffffffffffffffffffffffffffff168152509080600181540180825580915050600190039060005260206000209060040201600090919091909150600082015181600001556020820151816001019080519060200190610a8b929190611d03565b506040820151816002019080519060200190610aa8929190611d03565b5060608201518160030160006101000a81548173ffffffffffffffffffffffffffffffffffffffff021916908373ffffffffffffffffffffffffffffffffffffffff1602179055505050610afc33826114f3565b50505050565b610b1d83838360405180602001604052806000815250610f1d565b505050565b60606009805480602002602001604051908101604052809291908181526020016000905b82821015610cfc578382906000526020600020906004020160405180608001604052908160008201548152602001600182018054610b8390612ade565b80601f0160208091040260200160405190810160405280929190818152602001828054610baf90612ade565b8015610bfc5780601f10610bd157610100808354040283529160200191610bfc565b820191906000526020600020905b815481529060010190602001808311610bdf57829003601f168201915b50505050508152602001600282018054610c1590612ade565b80601f0160208091040260200160405190810160405280929190818152602001828054610c4190612ade565b8015610c8e5780601f10610c6357610100808354040283529160200191610c8e565b820191906000526020600020905b815481529060010190602001808311610c7157829003601f168201915b505050505081526020016003820160009054906101000a900473ffffffffffffffffffffffffffffffffffffffff1673ffffffffffffffffffffffffffffffffffffffff1673ffffffffffffffffffffffffffffffffffffffff168152505081526020019060010190610b46565b50505050905090565b6000806002600084815260200190815260200160002060009054906101000a900473ffffffffffffffffffffffffffffffffffffffff169050600073ffffffffffffffffffffffffffffffffffffffff168173ffffffffffffffffffffffffffffffffffffffff161415610dae576040517f08c379a0000000000000000000000000000000000000000000000000000000008152600401610da59061278b565b60405180910390fd5b80915050919050565b60065481565b60008073ffffffffffffffffffffffffffffffffffffffff168273ffffffffffffffffffffffffffffffffffffffff161415610e2e576040517f08c379a0000000000000000000000000000000000000000000000000000000008152600401610e259061270b565b60405180910390fd5b600360008373ffffffffffffffffffffffffffffffffffffffff1673ffffffffffffffffffffffffffffffffffffffff168152602001908152602001600020549050919050565b606060018054610e8490612ade565b80601f0160208091040260200160405190810160405280929190818152602001828054610eb090612ade565b8015610efd5780601f10610ed257610100808354040283529160200191610efd565b820191906000526020600020905b815481529060010190602001808311610ee057829003601f168201915b5050505050905090565b610f19610f12611136565b8383611511565b5050565b610f2e610f28611136565b836111f7565b610f6d576040517f08c379a0000000000000000000000000000000000000000000000000000000008152600401610f64906127cb565b60405180910390fd5b610f798484848461167e565b50505050565b6060610f8a826110eb565b6000610f946116da565b90506000815111610fb45760405180602001604052806000815250610fdf565b80610fbe846116f1565b604051602001610fcf929190612561565b6040516020818303038152906040525b915050919050565b60085481565b6000600560008473ffffffffffffffffffffffffffffffffffffffff1673ffffffffffffffffffffffffffffffffffffffff16815260200190815260200160002060008373ffffffffffffffffffffffffffffffffffffffff1673ffffffffffffffffffffffffffffffffffffffff16815260200190815260200160002060009054906101000a900460ff16905092915050565b60007f01ffc9a7000000000000000000000000000000000000000000000000000000007bffffffffffffffffffffffffffffffffffffffffffffffffffffffff1916827bffffffffffffffffffffffffffffffffffffffffffffffffffffffff1916149050919050565b6110f48161189e565b611133576040517f08c379a000000000000000000000000000000000000000000000000000000000815260040161112a9061278b565b60405180910390fd5b50565b600033905090565b816004600083815260200190815260200160002060006101000a81548173ffffffffffffffffffffffffffffffffffffffff021916908373ffffffffffffffffffffffffffffffffffffffff160217905550808273ffffffffffffffffffffffffffffffffffffffff166111b183610d05565b73ffffffffffffffffffffffffffffffffffffffff167f8c5be1e5ebec7d5bd14f71427d1e84f3dd0314c0f7b2291e5b200ac8c7c3b92560405160405180910390a45050565b60008061120383610d05565b90508073ffffffffffffffffffffffffffffffffffffffff168473ffffffffffffffffffffffffffffffffffffffff16148061124557506112448185610fed565b5b8061128357508373ffffffffffffffffffffffffffffffffffffffff1661126b84610626565b73ffffffffffffffffffffffffffffffffffffffff16145b91505092915050565b8273ffffffffffffffffffffffffffffffffffffffff166112ac82610d05565b73ffffffffffffffffffffffffffffffffffffffff1614611302576040517f08c379a00000000000000000000000000000000000000000000000000000000081526004016112f99061266b565b60405180910390fd5b600073ffffffffffffffffffffffffffffffffffffffff168273ffffffffffffffffffffffffffffffffffffffff161415611372576040517f08c379a0000000000000000000000000000000000000000000000000000000008152600401611369906126ab565b60405180910390fd5b61137d83838361190a565b61138860008261113e565b6001600360008573ffffffffffffffffffffffffffffffffffffffff1673ffffffffffffffffffffffffffffffffffffffff16815260200190815260200160002060008282546113d891906129f4565b925050819055506001600360008473ffffffffffffffffffffffffffffffffffffffff1673ffffffffffffffffffffffffffffffffffffffff168152602001908152602001600020600082825461142f919061296d565b92505081905550816002600083815260200190815260200160002060006101000a81548173ffffffffffffffffffffffffffffffffffffffff021916908373ffffffffffffffffffffffffffffffffffffffff160217905550808273ffffffffffffffffffffffffffffffffffffffff168473ffffffffffffffffffffffffffffffffffffffff167fddf252ad1be2c89b69c2b068fc378daa952ba7f163c4a11628f55a4df523b3ef60405160405180910390a46114ee83838361190f565b505050565b61150d828260405180602001604052806000815250611914565b5050565b8173ffffffffffffffffffffffffffffffffffffffff168373ffffffffffffffffffffffffffffffffffffffff161415611580576040517f08c379a0000000000000000000000000000000000000000000000000000000008152600401611577906126cb565b60405180910390fd5b80600560008573ffffffffffffffffffffffffffffffffffffffff1673ffffffffffffffffffffffffffffffffffffffff16815260200190815260200160002060008473ffffffffffffffffffffffffffffffffffffffff1673ffffffffffffffffffffffffffffffffffffffff16815260200190815260200160002060006101000a81548160ff0219169083151502179055508173ffffffffffffffffffffffffffffffffffffffff168373ffffffffffffffffffffffffffffffffffffffff167f17307eab39ab6107e8899845ad3d59bd9653f200f220920489ca2b5937696c3183604051611671919061260e565b60405180910390a3505050565b61168984848461128c565b6116958484848461196f565b6116d4576040517f08c379a00000000000000000000000000000000000000000000000000000000081526004016116cb9061264b565b60405180910390fd5b50505050565b606060405180602001604052806000815250905090565b60606000821415611739576040518060400160405280600181526020017f30000000000000000000000000000000000000000000000000000000000000008152509050611899565b600082905060005b6000821461176b57808061175490612b41565b915050600a8261176491906129c3565b9150611741565b60008167ffffffffffffffff8111156117ad577f4e487b7100000000000000000000000000000000000000000000000000000000600052604160045260246000fd5b6040519080825280601f01601f1916602001820160405280156117df5781602001600182028036833780820191505090505b5090505b60008514611892576001826117f891906129f4565b9150600a856118079190612b8a565b6030611813919061296d565b60f81b81838151811061184f577f4e487b7100000000000000000000000000000000000000000000000000000000600052603260045260246000fd5b60200101907effffffffffffffffffffffffffffffffffffffffffffffffffffffffffffff1916908160001a905350600a8561188b91906129c3565b94506117e3565b8093505050505b919050565b60008073ffffffffffffffffffffffffffffffffffffffff166002600084815260200190815260200160002060009054906101000a900473ffffffffffffffffffffffffffffffffffffffff1673ffffffffffffffffffffffffffffffffffffffff1614159050919050565b505050565b505050565b61191e8383611b06565b61192b600084848461196f565b61196a576040517f08c379a00000000000000000000000000000000000000000000000000000000081526004016119619061264b565b60405180910390fd5b505050565b60006119908473ffffffffffffffffffffffffffffffffffffffff16611ce0565b15611af9578373ffffffffffffffffffffffffffffffffffffffff1663150b7a026119b9611136565b8786866040518563ffffffff1660e01b81526004016119db94939291906125a0565b602060405180830381600087803b1580156119f557600080fd5b505af1925050508015611a2657506040513d601f19601f82011682018060405250810190611a2391906120af565b60015b611aa9573d8060008114611a56576040519150601f19603f3d011682016040523d82523d6000602084013e611a5b565b606091505b50600081511415611aa1576040517f08c379a0000000000000000000000000000000000000000000000000000000008152600401611a989061264b565b60405180910390fd5b805181602001fd5b63150b7a0260e01b7bffffffffffffffffffffffffffffffffffffffffffffffffffffffff1916817bffffffffffffffffffffffffffffffffffffffffffffffffffffffff191614915050611afe565b600190505b949350505050565b600073ffffffffffffffffffffffffffffffffffffffff168273ffffffffffffffffffffffffffffffffffffffff161415611b76576040517f08c379a0000000000000000000000000000000000000000000000000000000008152600401611b6d9061276b565b60405180910390fd5b611b7f8161189e565b15611bbf576040517f08c379a0000000000000000000000000000000000000000000000000000000008152600401611bb69061268b565b60405180910390fd5b611bcb6000838361190a565b6001600360008473ffffffffffffffffffffffffffffffffffffffff1673ffffffffffffffffffffffffffffffffffffffff1681526020019081526020016000206000828254611c1b919061296d565b92505081905550816002600083815260200190815260200160002060006101000a81548173ffffffffffffffffffffffffffffffffffffffff021916908373ffffffffffffffffffffffffffffffffffffffff160217905550808273ffffffffffffffffffffffffffffffffffffffff16600073ffffffffffffffffffffffffffffffffffffffff167fddf252ad1be2c89b69c2b068fc378daa952ba7f163c4a11628f55a4df523b3ef60405160405180910390a4611cdc6000838361190f565b5050565b6000808273ffffffffffffffffffffffffffffffffffffffff163b119050919050565b828054611d0f90612ade565b90600052602060002090601f016020900481019282611d315760008555611d78565b82601f10611d4a57805160ff1916838001178555611d78565b82800160010185558215611d78579182015b82811115611d77578251825591602001919060010190611d5c565b5b509050611d859190611d89565b5090565b5b80821115611da2576000816000905550600101611d8a565b5090565b6000611db9611db48461287e565b612859565b905082815260208101848484011115611dd157600080fd5b611ddc848285612a9c565b509392505050565b6000611df7611df2846128af565b612859565b905082815260208101848484011115611e0f57600080fd5b611e1a848285612a9c565b509392505050565b600081359050611e3181612fa7565b92915050565b600081359050611e4681612fbe565b92915050565b600081359050611e5b81612fd5565b92915050565b600081519050611e7081612fd5565b92915050565b600082601f830112611e8757600080fd5b8135611e97848260208601611da6565b91505092915050565b600082601f830112611eb157600080fd5b8135611ec1848260208601611de4565b91505092915050565b600081359050611ed981612fec565b92915050565b600060208284031215611ef157600080fd5b6000611eff84828501611e22565b91505092915050565b60008060408385031215611f1b57600080fd5b6000611f2985828601611e22565b9250506020611f3a85828601611e22565b9150509250929050565b600080600060608486031215611f5957600080fd5b6000611f6786828701611e22565b9350506020611f7886828701611e22565b9250506040611f8986828701611eca565b9150509250925092565b60008060008060808587031215611fa957600080fd5b6000611fb787828801611e22565b9450506020611fc887828801611e22565b9350506040611fd987828801611eca565b925050606085013567ffffffffffffffff811115611ff657600080fd5b61200287828801611e76565b91505092959194509250565b6000806040838503121561202157600080fd5b600061202f85828601611e22565b925050602061204085828601611e37565b9150509250929050565b6000806040838503121561205d57600080fd5b600061206b85828601611e22565b925050602061207c85828601611eca565b9150509250929050565b60006020828403121561209857600080fd5b60006120a684828501611e4c565b91505092915050565b6000602082840312156120c157600080fd5b60006120cf84828501611e61565b91505092915050565b6000602082840312156120ea57600080fd5b60006120f884828501611eca565b91505092915050565b60008060006060848603121561211657600080fd5b600061212486828701611eca565b935050602084013567ffffffffffffffff81111561214157600080fd5b61214d86828701611ea0565b925050604084013567ffffffffffffffff81111561216a57600080fd5b61217686828701611ea0565b9150509250925092565b600061218c83836124d9565b905092915050565b61219d81612a28565b82525050565b6121ac81612a28565b82525050565b60006121bd826128f0565b6121c7818561291e565b9350836020820285016121d9856128e0565b8060005b8581101561221557848403895281516121f68582612180565b945061220183612911565b925060208a019950506001810190506121dd565b50829750879550505050505092915050565b61223081612a3a565b82525050565b6000612241826128fb565b61224b818561292f565b935061225b818560208601612aab565b61226481612c77565b840191505092915050565b600061227a82612906565b6122848185612940565b9350612294818560208601612aab565b61229d81612c77565b840191505092915050565b60006122b382612906565b6122bd8185612951565b93506122cd818560208601612aab565b6122d681612c77565b840191505092915050565b60006122ec82612906565b6122f68185612962565b9350612306818560208601612aab565b80840191505092915050565b600061231f603283612951565b915061232a82612c88565b604082019050919050565b6000612342602583612951565b915061234d82612cd7565b604082019050919050565b6000612365601c83612951565b915061237082612d26565b602082019050919050565b6000612388602483612951565b915061239382612d4f565b604082019050919050565b60006123ab601983612951565b91506123b682612d9e565b602082019050919050565b60006123ce600883612951565b91506123d982612dc7565b602082019050919050565b60006123f1602983612951565b91506123fc82612df0565b604082019050919050565b6000612414600b83612951565b915061241f82612e3f565b602082019050919050565b6000612437603e83612951565b915061244282612e68565b604082019050919050565b600061245a602083612951565b915061246582612eb7565b602082019050919050565b600061247d601883612951565b915061248882612ee0565b602082019050919050565b60006124a0602183612951565b91506124ab82612f09565b604082019050919050565b60006124c3602e83612951565b91506124ce82612f58565b604082019050919050565b60006080830160008301516124f16000860182612543565b5060208301518482036020860152612509828261226f565b91505060408301518482036040860152612523828261226f565b91505060608301516125386060860182612194565b508091505092915050565b61254c81612a92565b82525050565b61255b81612a92565b82525050565b600061256d82856122e1565b915061257982846122e1565b91508190509392505050565b600060208201905061259a60008301846121a3565b92915050565b60006080820190506125b560008301876121a3565b6125c260208301866121a3565b6125cf6040830185612552565b81810360608301526125e18184612236565b905095945050505050565b6000602082019050818103600083015261260681846121b2565b905092915050565b60006020820190506126236000830184612227565b92915050565b6000602082019050818103600083015261264381846122a8565b905092915050565b6000602082019050818103600083015261266481612312565b9050919050565b6000602082019050818103600083015261268481612335565b9050919050565b600060208201905081810360008301526126a481612358565b9050919050565b600060208201905081810360008301526126c48161237b565b9050919050565b600060208201905081810360008301526126e48161239e565b9050919050565b60006020820190508181036000830152612704816123c1565b9050919050565b60006020820190508181036000830152612724816123e4565b9050919050565b6000602082019050818103600083015261274481612407565b9050919050565b600060208201905081810360008301526127648161242a565b9050919050565b600060208201905081810360008301526127848161244d565b9050919050565b600060208201905081810360008301526127a481612470565b9050919050565b600060208201905081810360008301526127c481612493565b9050919050565b600060208201905081810360008301526127e4816124b6565b9050919050565b60006020820190506128006000830184612552565b92915050565b600060808201905061281b6000830187612552565b818103602083015261282d81866122a8565b9050818103604083015261284181856122a8565b905061285060608301846121a3565b95945050505050565b6000612863612874565b905061286f8282612b10565b919050565b6000604051905090565b600067ffffffffffffffff82111561289957612898612c48565b5b6128a282612c77565b9050602081019050919050565b600067ffffffffffffffff8211156128ca576128c9612c48565b5b6128d382612c77565b9050602081019050919050565b6000819050602082019050919050565b600081519050919050565b600081519050919050565b600081519050919050565b6000602082019050919050565b600082825260208201905092915050565b600082825260208201905092915050565b600082825260208201905092915050565b600082825260208201905092915050565b600081905092915050565b600061297882612a92565b915061298383612a92565b9250827fffffffffffffffffffffffffffffffffffffffffffffffffffffffffffffffff038211156129b8576129b7612bbb565b5b828201905092915050565b60006129ce82612a92565b91506129d983612a92565b9250826129e9576129e8612bea565b5b828204905092915050565b60006129ff82612a92565b9150612a0a83612a92565b925082821015612a1d57612a1c612bbb565b5b828203905092915050565b6000612a3382612a72565b9050919050565b60008115159050919050565b60007fffffffff0000000000000000000000000000000000000000000000000000000082169050919050565b600073ffffffffffffffffffffffffffffffffffffffff82169050919050565b6000819050919050565b82818337600083830152505050565b60005b83811015612ac9578082015181840152602081019050612aae565b83811115612ad8576000848401525b50505050565b60006002820490506001821680612af657607f821691505b60208210811415612b0a57612b09612c19565b5b50919050565b612b1982612c77565b810181811067ffffffffffffffff82111715612b3857612b37612c48565b5b80604052505050565b6000612b4c82612a92565b91507fffffffffffffffffffffffffffffffffffffffffffffffffffffffffffffffff821415612b7f57612b7e612bbb565b5b600182019050919050565b6000612b9582612a92565b9150612ba083612a92565b925082612bb057612baf612bea565b5b828206905092915050565b7f4e487b7100000000000000000000000000000000000000000000000000000000600052601160045260246000fd5b7f4e487b7100000000000000000000000000000000000000000000000000000000600052601260045260246000fd5b7f4e487b7100000000000000000000000000000000000000000000000000000000600052602260045260246000fd5b7f4e487b7100000000000000000000000000000000000000000000000000000000600052604160045260246000fd5b6000601f19601f8301169050919050565b7f4552433732313a207472616e7366657220746f206e6f6e20455243373231526560008201527f63656976657220696d706c656d656e7465720000000000000000000000000000602082015250565b7f4552433732313a207472616e736665722066726f6d20696e636f72726563742060008201527f6f776e6572000000000000000000000000000000000000000000000000000000602082015250565b7f4552433732313a20746f6b656e20616c7265616479206d696e74656400000000600082015250565b7f4552433732313a207472616e7366657220746f20746865207a65726f2061646460008201527f7265737300000000000000000000000000000000000000000000000000000000602082015250565b7f4552433732313a20617070726f766520746f2063616c6c657200000000000000600082015250565b7f736f6c64206f7574000000000000000000000000000000000000000000000000600082015250565b7f4552433732313a2061646472657373207a65726f206973206e6f74206120766160008201527f6c6964206f776e65720000000000000000000000000000000000000000000000602082015250565b7f77726f6e672076616c7565000000000000000000000000000000000000000000600082015250565b7f4552433732313a20617070726f76652063616c6c6572206973206e6f7420746f60008201527f6b656e206f776e6572206e6f7220617070726f76656420666f7220616c6c0000602082015250565b7f4552433732313a206d696e7420746f20746865207a65726f2061646472657373600082015250565b7f4552433732313a20696e76616c696420746f6b656e2049440000000000000000600082015250565b7f4552433732313a20617070726f76616c20746f2063757272656e74206f776e6560008201527f7200000000000000000000000000000000000000000000000000000000000000602082015250565b7f4552433732313a2063616c6c6572206973206e6f7420746f6b656e206f776e6560008201527f72206e6f7220617070726f766564000000000000000000000000000000000000602082015250565b612fb081612a28565b8114612fbb57600080fd5b50565b612fc781612a3a565b8114612fd257600080fd5b50565b612fde81612a46565b8114612fe957600080fd5b50565b612ff581612a92565b811461300057600080fd5b5056fea264697066735822122039be9ab01960cffdef4199c5ba309c38a9f6bc67e363539bcd96e3675ce10b6564736f6c63430008040033",
  "linkReferences": {},
  "deployedLinkReferences": {}
}